{
  "_format": "hh-sol-artifact-1",
  "contractName": "PolyERC721",
  "sourceName": "contracts/PolyERC721.sol",
  "abi": [
    {
      "inputs": [
        {
          "internalType": "string",
          "name": "nftName",
          "type": "string"
        },
        {
          "internalType": "string",
          "name": "nftSymbol",
          "type": "string"
        },
        {
          "internalType": "address",
          "name": "owner",
          "type": "address"
        }
      ],
      "stateMutability": "nonpayable",
      "type": "constructor"
    },
    {
      "anonymous": false,
      "inputs": [
        {
          "indexed": true,
          "internalType": "address",
          "name": "previousOwner",
          "type": "address"
        }
      ],
      "name": "OwnershipRenounced",
      "type": "event"
    },
    {
      "anonymous": false,
      "inputs": [
        {
          "indexed": true,
          "internalType": "address",
          "name": "previousOwner",
          "type": "address"
        },
        {
          "indexed": true,
          "internalType": "address",
          "name": "newOwner",
          "type": "address"
        }
      ],
      "name": "OwnershipTransferred",
      "type": "event"
    },
    {
      "anonymous": false,
      "inputs": [
        {
          "indexed": false,
          "internalType": "address",
          "name": "",
          "type": "address"
        },
        {
          "indexed": false,
          "internalType": "address",
          "name": "",
          "type": "address"
        },
        {
          "indexed": false,
          "internalType": "uint256",
          "name": "",
          "type": "uint256"
        }
      ],
      "name": "TransferNFT",
      "type": "event"
    },
    {
      "inputs": [],
      "name": "allowBurn",
      "outputs": [],
      "stateMutability": "nonpayable",
      "type": "function"
    },
    {
      "inputs": [
        {
          "internalType": "address",
          "name": "owner",
          "type": "address"
        }
      ],
      "name": "balanceOfNFTOwner",
      "outputs": [
        {
          "internalType": "uint256",
          "name": "",
          "type": "uint256"
        }
      ],
      "stateMutability": "view",
      "type": "function"
    },
    {
      "inputs": [],
      "name": "burnStatus",
      "outputs": [
        {
          "internalType": "bool",
          "name": "",
          "type": "bool"
        }
      ],
      "stateMutability": "view",
      "type": "function"
    },
    {
      "inputs": [
        {
          "internalType": "uint256",
          "name": "tokenId",
          "type": "uint256"
        }
      ],
      "name": "burnToken",
      "outputs": [
        {
          "internalType": "bool",
          "name": "",
          "type": "bool"
        }
      ],
      "stateMutability": "nonpayable",
      "type": "function"
    },
    {
      "inputs": [
        {
          "internalType": "address",
          "name": "to",
          "type": "address"
        },
        {
          "internalType": "uint256",
          "name": "tokenId",
          "type": "uint256"
        }
      ],
      "name": "buyNFT",
      "outputs": [
        {
          "internalType": "bool",
          "name": "",
          "type": "bool"
        }
      ],
      "stateMutability": "payable",
      "type": "function"
    },
    {
      "inputs": [
        {
          "internalType": "address",
          "name": "spender",
          "type": "address"
        },
        {
          "internalType": "uint256",
          "name": "tokenId",
          "type": "uint256"
        }
      ],
      "name": "checkPermit",
      "outputs": [
        {
          "internalType": "bool",
          "name": "",
          "type": "bool"
        }
      ],
      "stateMutability": "view",
      "type": "function"
    },
    {
      "inputs": [
        {
          "internalType": "uint256",
          "name": "tokenId",
          "type": "uint256"
        }
      ],
      "name": "checkTokenAuctionStatus",
      "outputs": [
        {
          "internalType": "bool",
          "name": "",
          "type": "bool"
        }
      ],
      "stateMutability": "view",
      "type": "function"
    },
    {
      "inputs": [
        {
          "internalType": "uint256",
          "name": "tokenId",
          "type": "uint256"
        }
      ],
      "name": "checkTokenAuctionValue",
      "outputs": [
        {
          "internalType": "uint256",
          "name": "",
          "type": "uint256"
        }
      ],
      "stateMutability": "view",
      "type": "function"
    },
    {
      "inputs": [],
      "name": "disableAuction",
      "outputs": [],
      "stateMutability": "nonpayable",
      "type": "function"
    },
    {
      "inputs": [],
      "name": "disableTransfer",
      "outputs": [],
      "stateMutability": "nonpayable",
      "type": "function"
    },
    {
      "inputs": [],
      "name": "enableAuction",
      "outputs": [],
      "stateMutability": "nonpayable",
      "type": "function"
    },
    {
      "inputs": [],
      "name": "enableTransfer",
      "outputs": [],
      "stateMutability": "nonpayable",
      "type": "function"
    },
    {
      "inputs": [
        {
          "internalType": "uint256",
          "name": "tokenId",
          "type": "uint256"
        }
      ],
      "name": "endAuctionNFT",
      "outputs": [
        {
          "internalType": "bool",
          "name": "",
          "type": "bool"
        }
      ],
      "stateMutability": "nonpayable",
      "type": "function"
    },
    {
      "inputs": [],
      "name": "getTotalTokens",
      "outputs": [
        {
          "internalType": "uint256",
          "name": "",
          "type": "uint256"
        }
      ],
      "stateMutability": "view",
      "type": "function"
    },
    {
      "inputs": [
        {
          "internalType": "uint256",
          "name": "tokenId",
          "type": "uint256"
        }
      ],
      "name": "isTokenStaked",
      "outputs": [
        {
          "internalType": "bool",
          "name": "",
          "type": "bool"
        }
      ],
      "stateMutability": "view",
      "type": "function"
    },
    {
      "inputs": [
        {
          "internalType": "uint256",
          "name": "tokenId",
          "type": "uint256"
        },
        {
          "internalType": "address",
          "name": "to",
          "type": "address"
        }
      ],
      "name": "mintNFT",
      "outputs": [
        {
          "internalType": "bool",
          "name": "",
          "type": "bool"
        }
      ],
      "stateMutability": "nonpayable",
      "type": "function"
    },
    {
      "inputs": [],
      "name": "nameOfNFT",
      "outputs": [
        {
          "internalType": "string",
          "name": "",
          "type": "string"
        }
      ],
      "stateMutability": "view",
      "type": "function"
    },
    {
      "inputs": [
        {
          "internalType": "uint256",
          "name": "tokenId",
          "type": "uint256"
        }
      ],
      "name": "nonces",
      "outputs": [
        {
          "internalType": "uint8",
          "name": "",
          "type": "uint8"
        }
      ],
      "stateMutability": "view",
      "type": "function"
    },
    {
      "inputs": [],
      "name": "owner",
      "outputs": [
        {
          "internalType": "address",
          "name": "",
          "type": "address"
        }
      ],
      "stateMutability": "view",
      "type": "function"
    },
    {
      "inputs": [],
      "name": "ownerOfContract",
      "outputs": [
        {
          "internalType": "address",
          "name": "",
          "type": "address"
        }
      ],
      "stateMutability": "view",
      "type": "function"
    },
    {
      "inputs": [
        {
          "internalType": "uint256",
          "name": "tokenId",
          "type": "uint256"
        }
      ],
      "name": "ownerOfNFT",
      "outputs": [
        {
          "internalType": "address",
          "name": "",
          "type": "address"
        }
      ],
      "stateMutability": "view",
      "type": "function"
    },
    {
      "inputs": [],
      "name": "pauseMint",
      "outputs": [],
      "stateMutability": "nonpayable",
      "type": "function"
    },
    {
      "inputs": [
        {
          "internalType": "address",
          "name": "spender",
          "type": "address"
        },
        {
          "internalType": "uint256",
          "name": "tokenId",
          "type": "uint256"
        },
        {
          "internalType": "bytes",
          "name": "signature",
          "type": "bytes"
        },
        {
          "internalType": "bytes32",
          "name": "digest",
          "type": "bytes32"
        }
      ],
      "name": "permit",
      "outputs": [
        {
          "internalType": "bool",
          "name": "",
          "type": "bool"
        }
      ],
      "stateMutability": "nonpayable",
      "type": "function"
    },
    {
      "inputs": [
        {
          "internalType": "uint256",
          "name": "tokenId",
          "type": "uint256"
        },
        {
          "internalType": "bytes",
          "name": "signature",
          "type": "bytes"
        }
      ],
      "name": "permitSpender",
      "outputs": [
        {
          "internalType": "bool",
          "name": "",
          "type": "bool"
        }
      ],
      "stateMutability": "nonpayable",
      "type": "function"
    },
    {
      "inputs": [
        {
          "internalType": "uint256",
          "name": "tokenId",
          "type": "uint256"
        }
      ],
      "name": "release",
      "outputs": [
        {
          "internalType": "bool",
          "name": "",
          "type": "bool"
        }
      ],
      "stateMutability": "nonpayable",
      "type": "function"
    },
    {
      "inputs": [
        {
          "internalType": "uint256",
          "name": "tokenId",
          "type": "uint256"
        }
      ],
      "name": "releaseTime",
      "outputs": [
        {
          "internalType": "uint256",
          "name": "",
          "type": "uint256"
        }
      ],
      "stateMutability": "view",
      "type": "function"
    },
    {
      "inputs": [],
      "name": "renounceOwnership",
      "outputs": [],
      "stateMutability": "nonpayable",
      "type": "function"
    },
    {
      "inputs": [],
      "name": "restrictBurn",
      "outputs": [],
      "stateMutability": "nonpayable",
      "type": "function"
    },
    {
      "inputs": [
        {
          "internalType": "uint256",
          "name": "tokenId",
          "type": "uint256"
        }
      ],
      "name": "sellNFT",
      "outputs": [
        {
          "internalType": "bool",
          "name": "",
          "type": "bool"
        }
      ],
      "stateMutability": "payable",
      "type": "function"
    },
    {
      "inputs": [
        {
          "internalType": "uint256",
          "name": "tokenId",
          "type": "uint256"
        },
        {
          "internalType": "uint256",
          "name": "lockPeriodInDays",
          "type": "uint256"
        }
      ],
      "name": "stakeNFT",
      "outputs": [
        {
          "internalType": "bool",
          "name": "",
          "type": "bool"
        }
      ],
      "stateMutability": "nonpayable",
      "type": "function"
    },
    {
      "inputs": [
        {
          "internalType": "uint256",
          "name": "tokenId",
          "type": "uint256"
        },
        {
          "internalType": "uint256",
          "name": "value",
          "type": "uint256"
        }
      ],
      "name": "startAuctionNFT",
      "outputs": [
        {
          "internalType": "bool",
          "name": "",
          "type": "bool"
        }
      ],
      "stateMutability": "nonpayable",
      "type": "function"
    },
    {
      "inputs": [],
      "name": "startMint",
      "outputs": [],
      "stateMutability": "nonpayable",
      "type": "function"
    },
    {
      "inputs": [],
      "name": "symbolOfNFT",
      "outputs": [
        {
          "internalType": "string",
          "name": "",
          "type": "string"
        }
      ],
      "stateMutability": "view",
      "type": "function"
    },
    {
      "inputs": [
        {
          "internalType": "uint256",
          "name": "tokenId",
          "type": "uint256"
        }
      ],
      "name": "tokenURI",
      "outputs": [
        {
          "internalType": "string",
          "name": "",
          "type": "string"
        }
      ],
      "stateMutability": "view",
      "type": "function"
    },
    {
      "inputs": [
        {
          "internalType": "address",
          "name": "from",
          "type": "address"
        },
        {
          "internalType": "address",
          "name": "to",
          "type": "address"
        },
        {
          "internalType": "uint256",
          "name": "tokenId",
          "type": "uint256"
        }
      ],
      "name": "transferNFT",
      "outputs": [
        {
          "internalType": "bool",
          "name": "",
          "type": "bool"
        }
      ],
      "stateMutability": "nonpayable",
      "type": "function"
    },
    {
      "inputs": [
        {
          "internalType": "address",
          "name": "_newOwner",
          "type": "address"
        }
      ],
      "name": "transferOwnership",
      "outputs": [],
      "stateMutability": "nonpayable",
      "type": "function"
    }
  ],
  "bytecode": "0x608060405260008060146101000a81548160ff02191690831515021790555060008060156101000a81548160ff0219169083151502179055506001600060166101000a81548160ff02191690831515021790555060008060176101000a81548160ff02191690831515021790555060006006553480156200007f57600080fd5b5060405162004584380380620045848339818101604052810190620000a5919062000499565b336000806101000a81548173ffffffffffffffffffffffffffffffffffffffff021916908373ffffffffffffffffffffffffffffffffffffffff1602179055508260039080519060200190620000fd929190620001e7565b50816004908051906020019062000116929190620001e7565b5080600560006101000a81548173ffffffffffffffffffffffffffffffffffffffff021916908373ffffffffffffffffffffffffffffffffffffffff160217905550620001686200017160201b60201c565b50505062000598565b60008054906101000a900473ffffffffffffffffffffffffffffffffffffffff1673ffffffffffffffffffffffffffffffffffffffff163373ffffffffffffffffffffffffffffffffffffffff1614620001ca57600080fd5b6001600060146101000a81548160ff021916908315150217905550565b828054620001f59062000562565b90600052602060002090601f01602090048101928262000219576000855562000265565b82601f106200023457805160ff191683800117855562000265565b8280016001018555821562000265579182015b828111156200026457825182559160200191906001019062000247565b5b50905062000274919062000278565b5090565b5b808211156200029357600081600090555060010162000279565b5090565b6000604051905090565b600080fd5b600080fd5b600080fd5b600080fd5b6000601f19601f8301169050919050565b7f4e487b7100000000000000000000000000000000000000000000000000000000600052604160045260246000fd5b6200030082620002b5565b810181811067ffffffffffffffff82111715620003225762000321620002c6565b5b80604052505050565b60006200033762000297565b9050620003458282620002f5565b919050565b600067ffffffffffffffff821115620003685762000367620002c6565b5b6200037382620002b5565b9050602081019050919050565b60005b83811015620003a057808201518184015260208101905062000383565b83811115620003b0576000848401525b50505050565b6000620003cd620003c7846200034a565b6200032b565b905082815260208101848484011115620003ec57620003eb620002b0565b5b620003f984828562000380565b509392505050565b600082601f830112620004195762000418620002ab565b5b81516200042b848260208601620003b6565b91505092915050565b600073ffffffffffffffffffffffffffffffffffffffff82169050919050565b6000620004618262000434565b9050919050565b620004738162000454565b81146200047f57600080fd5b50565b600081519050620004938162000468565b92915050565b600080600060608486031215620004b557620004b4620002a1565b5b600084015167ffffffffffffffff811115620004d657620004d5620002a6565b5b620004e48682870162000401565b935050602084015167ffffffffffffffff811115620005085762000507620002a6565b5b620005168682870162000401565b9250506040620005298682870162000482565b9150509250925092565b7f4e487b7100000000000000000000000000000000000000000000000000000000600052602260045260246000fd5b600060028204905060018216806200057b57607f821691505b6020821081141562000592576200059162000533565b5b50919050565b613fdc80620005a86000396000f3fe60806040526004361061020f5760003560e01c806390e0d99211610118578063cd85cdb5116100a0578063f1b06f391161006f578063f1b06f39146107d3578063f1b50c1d146107fe578063f210419814610815578063f2a3065e14610852578063f2fde38b1461088f5761020f565b8063cd85cdb514610724578063ee9cdfb31461073b578063f08b82e61461076b578063f0a52424146107965761020f565b8063b832b592116100e7578063b832b59214610605578063bd5e4ebc14610642578063bd934d1b1461066d578063c5bd2138146106aa578063c87b56dd146106e75761020f565b806390e0d99214610556578063985ac17614610581578063a82ba76f146105be578063b187984f146105ee5761020f565b8063468229ae1161019b578063715018a61161016a578063715018a61461045d578063766af110146104745780637b47ec1a146104b15780638da5cb5b146104ee5780638e115c35146105195761020f565b8063468229ae1461037b57806351cecc80146103a6578063669f5a51146103e357806369e9cae1146104205761020f565b80632cac83e7116101e25780632cac83e7146102bc5780632d8a746e146102d357806333a790251461031057806335e061fc1461032757806337bdc99b1461033e5761020f565b806309c4bb2b14610214578063141a468c1461025157806316eddef51461028e5780632be09561146102a5575b600080fd5b34801561022057600080fd5b5061023b600480360381019061023691906129f3565b6108b8565b6040516102489190612a2f565b60405180910390f35b34801561025d57600080fd5b50610278600480360381019061027391906129f3565b6108d5565b6040516102859190612a66565b60405180910390f35b34801561029a57600080fd5b506102a36108ff565b005b3480156102b157600080fd5b506102ba610974565b005b3480156102c857600080fd5b506102d16109e9565b005b3480156102df57600080fd5b506102fa60048036038101906102f591906129f3565b610a5d565b6040516103079190612ac2565b60405180910390f35b34801561031c57600080fd5b50610325610a9a565b005b34801561033357600080fd5b5061033c610b0e565b005b34801561034a57600080fd5b50610365600480360381019061036091906129f3565b610b83565b6040516103729190612af8565b60405180910390f35b34801561038757600080fd5b50610390610c7c565b60405161039d9190612ac2565b60405180910390f35b3480156103b257600080fd5b506103cd60048036038101906103c89190612b13565b610ca6565b6040516103da9190612af8565b60405180910390f35b3480156103ef57600080fd5b5061040a60048036038101906104059190612b7f565b610eb1565b6040516104179190612af8565b60405180910390f35b34801561042c57600080fd5b5061044760048036038101906104429190612bbf565b611097565b6040516104549190612af8565b60405180910390f35b34801561046957600080fd5b50610472611393565b005b34801561048057600080fd5b5061049b60048036038101906104969190612d58565b611491565b6040516104a89190612af8565b60405180910390f35b3480156104bd57600080fd5b506104d860048036038101906104d391906129f3565b6115c6565b6040516104e59190612af8565b60405180910390f35b3480156104fa57600080fd5b506105036117f8565b6040516105109190612ac2565b60405180910390f35b34801561052557600080fd5b50610540600480360381019061053b9190612b13565b61181c565b60405161054d9190612af8565b60405180910390f35b34801561056257600080fd5b5061056b611959565b6040516105789190612af8565b60405180910390f35b34801561058d57600080fd5b506105a860048036038101906105a39190612db4565b61196f565b6040516105b59190612af8565b60405180910390f35b6105d860048036038101906105d39190612db4565b6119d7565b6040516105e59190612af8565b60405180910390f35b3480156105fa57600080fd5b50610603611d3b565b005b34801561061157600080fd5b5061062c600480360381019061062791906129f3565b611daf565b6040516106399190612af8565b60405180910390f35b34801561064e57600080fd5b50610657611dd9565b6040516106649190612e7c565b60405180910390f35b34801561067957600080fd5b50610694600480360381019061068f9190612e9e565b611e6b565b6040516106a19190612a2f565b60405180910390f35b3480156106b657600080fd5b506106d160048036038101906106cc91906129f3565b611f23565b6040516106de9190612a2f565b60405180910390f35b3480156106f357600080fd5b5061070e600480360381019061070991906129f3565b611f40565b60405161071b9190612e7c565b60405180910390f35b34801561073057600080fd5b50610739612017565b005b610755600480360381019061075091906129f3565b61208b565b6040516107629190612af8565b60405180910390f35b34801561077757600080fd5b506107806122ed565b60405161078d9190612a2f565b60405180910390f35b3480156107a257600080fd5b506107bd60048036038101906107b891906129f3565b6122f7565b6040516107ca9190612af8565b60405180910390f35b3480156107df57600080fd5b506107e8612321565b6040516107f59190612e7c565b60405180910390f35b34801561080a57600080fd5b506108136123b3565b005b34801561082157600080fd5b5061083c60048036038101906108379190612f01565b612428565b6040516108499190612af8565b60405180910390f35b34801561085e57600080fd5b50610879600480360381019061087491906129f3565b612645565b6040516108869190612af8565b60405180910390f35b34801561089b57600080fd5b506108b660048036038101906108b19190612e9e565b612769565b005b6000600c6000838152602001908152602001600020549050919050565b60006001600083815260200190815260200160002060009054906101000a900460ff169050919050565b60008054906101000a900473ffffffffffffffffffffffffffffffffffffffff1673ffffffffffffffffffffffffffffffffffffffff163373ffffffffffffffffffffffffffffffffffffffff161461095757600080fd5b6001600060176101000a81548160ff021916908315150217905550565b60008054906101000a900473ffffffffffffffffffffffffffffffffffffffff1673ffffffffffffffffffffffffffffffffffffffff163373ffffffffffffffffffffffffffffffffffffffff16146109cc57600080fd5b6001600060146101000a81548160ff021916908315150217905550565b60008054906101000a900473ffffffffffffffffffffffffffffffffffffffff1673ffffffffffffffffffffffffffffffffffffffff163373ffffffffffffffffffffffffffffffffffffffff1614610a4157600080fd5b60008060156101000a81548160ff021916908315150217905550565b60006007600083815260200190815260200160002060009054906101000a900473ffffffffffffffffffffffffffffffffffffffff169050919050565b60008054906101000a900473ffffffffffffffffffffffffffffffffffffffff1673ffffffffffffffffffffffffffffffffffffffff163373ffffffffffffffffffffffffffffffffffffffff1614610af257600080fd5b60008060176101000a81548160ff021916908315150217905550565b60008054906101000a900473ffffffffffffffffffffffffffffffffffffffff1673ffffffffffffffffffffffffffffffffffffffff163373ffffffffffffffffffffffffffffffffffffffff1614610b6657600080fd5b6001600060156101000a81548160ff021916908315150217905550565b60008073ffffffffffffffffffffffffffffffffffffffff16610ba5836127cd565b73ffffffffffffffffffffffffffffffffffffffff161415610bfc576040517f08c379a0000000000000000000000000000000000000000000000000000000008152600401610bf390612ff6565b60405180910390fd5b610c05826108b8565b421015610c47576040517f08c379a0000000000000000000000000000000000000000000000000000000008152600401610c3e90613088565b60405180910390fd5b6000600b600084815260200190815260200160002060006101000a81548160ff02191690831515021790555060019050919050565b6000600560009054906101000a900473ffffffffffffffffffffffffffffffffffffffff16905090565b60008073ffffffffffffffffffffffffffffffffffffffff16610cc8846127cd565b73ffffffffffffffffffffffffffffffffffffffff161415610d1f576040517f08c379a0000000000000000000000000000000000000000000000000000000008152600401610d1690612ff6565b60405180910390fd5b3373ffffffffffffffffffffffffffffffffffffffff16610d3f84610a5d565b73ffffffffffffffffffffffffffffffffffffffff1614610d95576040517f08c379a0000000000000000000000000000000000000000000000000000000008152600401610d8c906130f4565b60405180910390fd5b60001515600b600085815260200190815260200160002060009054906101000a900460ff16151514610dfc576040517f08c379a0000000000000000000000000000000000000000000000000000000008152600401610df390613160565b60405180910390fd5b60006009600085815260200190815260200160002060006101000a81548160ff0219169083151502179055506103e8603c80601885610e3b91906131af565b610e4591906131af565b610e4f91906131af565b610e5991906131af565b42610e649190613209565b600c6000858152602001908152602001600020819055506001600b600085815260200190815260200160002060006101000a81548160ff0219169083151502179055506001905092915050565b60008073ffffffffffffffffffffffffffffffffffffffff168273ffffffffffffffffffffffffffffffffffffffff161415610f22576040517f08c379a0000000000000000000000000000000000000000000000000000000008152600401610f19906132d1565b60405180910390fd5b60001515600060149054906101000a900460ff1615151415610f79576040517f08c379a0000000000000000000000000000000000000000000000000000000008152600401610f7090613389565b60405180910390fd5b6001600860008473ffffffffffffffffffffffffffffffffffffffff1673ffffffffffffffffffffffffffffffffffffffff1681526020019081526020016000206000828254610fc99190613209565b92505081905550816007600085815260200190815260200160002060006101000a81548173ffffffffffffffffffffffffffffffffffffffff021916908373ffffffffffffffffffffffffffffffffffffffff1602179055506001600a600085815260200190815260200160002081905550600160065461104a9190613209565b6006819055507fa64cdec004d2859ac7547f4ed3252f53d0fa0b8dcbcc93a47894eee072714b623083600654604051611085939291906133a9565b60405180910390a16001905092915050565b60008073ffffffffffffffffffffffffffffffffffffffff166110b9836127cd565b73ffffffffffffffffffffffffffffffffffffffff161415611110576040517f08c379a000000000000000000000000000000000000000000000000000000000815260040161110790612ff6565b60405180910390fd5b3373ffffffffffffffffffffffffffffffffffffffff1661113083610a5d565b73ffffffffffffffffffffffffffffffffffffffff1614611186576040517f08c379a000000000000000000000000000000000000000000000000000000000815260040161117d90613452565b60405180910390fd5b600073ffffffffffffffffffffffffffffffffffffffff168373ffffffffffffffffffffffffffffffffffffffff1614156111f6576040517f08c379a00000000000000000000000000000000000000000000000000000000081526004016111ed906134e4565b60405180910390fd5b60001515600060169054906101000a900460ff161515141561124d576040517f08c379a00000000000000000000000000000000000000000000000000000000081526004016112449061359c565b60405180910390fd5b6001600860008673ffffffffffffffffffffffffffffffffffffffff1673ffffffffffffffffffffffffffffffffffffffff168152602001908152602001600020600082825461129d91906135bc565b925050819055506001600860008573ffffffffffffffffffffffffffffffffffffffff1673ffffffffffffffffffffffffffffffffffffffff16815260200190815260200160002060008282546112f49190613209565b92505081905550826007600084815260200190815260200160002060006101000a81548173ffffffffffffffffffffffffffffffffffffffff021916908373ffffffffffffffffffffffffffffffffffffffff1602179055507fa64cdec004d2859ac7547f4ed3252f53d0fa0b8dcbcc93a47894eee072714b62848484604051611380939291906133a9565b60405180910390a1600190509392505050565b60008054906101000a900473ffffffffffffffffffffffffffffffffffffffff1673ffffffffffffffffffffffffffffffffffffffff163373ffffffffffffffffffffffffffffffffffffffff16146113eb57600080fd5b60008054906101000a900473ffffffffffffffffffffffffffffffffffffffff1673ffffffffffffffffffffffffffffffffffffffff167ff8df31144d9c2f0f6b59d69b8b98abd5459d07f2742c4df920b25aae33c6482060405160405180910390a260008060006101000a81548173ffffffffffffffffffffffffffffffffffffffff021916908373ffffffffffffffffffffffffffffffffffffffff160217905550565b60008073ffffffffffffffffffffffffffffffffffffffff166114b3846127cd565b73ffffffffffffffffffffffffffffffffffffffff16141561150a576040517f08c379a000000000000000000000000000000000000000000000000000000000815260040161150190612ff6565b60405180910390fd5b3373ffffffffffffffffffffffffffffffffffffffff1661152a84610a5d565b73ffffffffffffffffffffffffffffffffffffffff1614611580576040517f08c379a000000000000000000000000000000000000000000000000000000000815260040161157790613662565b60405180910390fd5b600061158b846108d5565b90506115968461280a565b60006115a3338684612856565b90506115b133868684612428565b506115bc338661196f565b9250505092915050565b60008015156115d3611959565b15151415611616576040517f08c379a000000000000000000000000000000000000000000000000000000000815260040161160d9061371a565b60405180910390fd5b61161f82610a5d565b73ffffffffffffffffffffffffffffffffffffffff163373ffffffffffffffffffffffffffffffffffffffff161461168c576040517f08c379a0000000000000000000000000000000000000000000000000000000008152600401611683906137ac565b60405180910390fd5b60016008600061169b85610a5d565b73ffffffffffffffffffffffffffffffffffffffff1673ffffffffffffffffffffffffffffffffffffffff168152602001908152602001600020546116e091906135bc565b600860006116ed85610a5d565b73ffffffffffffffffffffffffffffffffffffffff1673ffffffffffffffffffffffffffffffffffffffff1681526020019081526020016000208190555060006007600084815260200190815260200160002060006101000a81548173ffffffffffffffffffffffffffffffffffffffff021916908373ffffffffffffffffffffffffffffffffffffffff160217905550600160065461178d91906135bc565b6006819055507fa64cdec004d2859ac7547f4ed3252f53d0fa0b8dcbcc93a47894eee072714b6260008054906101000a900473ffffffffffffffffffffffffffffffffffffffff166000846040516117e7939291906133a9565b60405180910390a160019050919050565b60008054906101000a900473ffffffffffffffffffffffffffffffffffffffff1681565b60008073ffffffffffffffffffffffffffffffffffffffff1661183e846127cd565b73ffffffffffffffffffffffffffffffffffffffff161415611895576040517f08c379a000000000000000000000000000000000000000000000000000000000815260040161188c90612ff6565b60405180910390fd5b3373ffffffffffffffffffffffffffffffffffffffff166118b584610a5d565b73ffffffffffffffffffffffffffffffffffffffff161461190b576040517f08c379a00000000000000000000000000000000000000000000000000000000081526004016119029061383e565b60405180910390fd5b60016009600085815260200190815260200160002060006101000a81548160ff02191690831515021790555081600a6000858152602001908152602001600020819055506001905092915050565b60008060159054906101000a900460ff16905090565b6000600260008473ffffffffffffffffffffffffffffffffffffffff1673ffffffffffffffffffffffffffffffffffffffff168152602001908152602001600020600083815260200190815260200160002060009054906101000a900460ff16905092915050565b60008073ffffffffffffffffffffffffffffffffffffffff166119f9836127cd565b73ffffffffffffffffffffffffffffffffffffffff161415611a50576040517f08c379a0000000000000000000000000000000000000000000000000000000008152600401611a4790612ff6565b60405180910390fd5b600a600083815260200190815260200160002054341015611aa6576040517f08c379a0000000000000000000000000000000000000000000000000000000008152600401611a9d906138d0565b60405180910390fd5b600115156009600084815260200190815260200160002060009054906101000a900460ff16151514611b0d576040517f08c379a0000000000000000000000000000000000000000000000000000000008152600401611b0490613962565b60405180910390fd5b60001515600b600084815260200190815260200160002060009054906101000a900460ff16151514611b74576040517f08c379a0000000000000000000000000000000000000000000000000000000008152600401611b6b906139f4565b60405180910390fd5b611b7d82610a5d565b73ffffffffffffffffffffffffffffffffffffffff166108fc349081150290604051600060405180830381858888f19350505050158015611bc2573d6000803e3d6000fd5b506001600860006007600086815260200190815260200160002060009054906101000a900473ffffffffffffffffffffffffffffffffffffffff1673ffffffffffffffffffffffffffffffffffffffff1673ffffffffffffffffffffffffffffffffffffffff1681526020019081526020016000206000828254611c4691906135bc565b925050819055506001600860008573ffffffffffffffffffffffffffffffffffffffff1673ffffffffffffffffffffffffffffffffffffffff1681526020019081526020016000206000828254611c9d9190613209565b92505081905550826007600084815260200190815260200160002060006101000a81548173ffffffffffffffffffffffffffffffffffffffff021916908373ffffffffffffffffffffffffffffffffffffffff1602179055507fa64cdec004d2859ac7547f4ed3252f53d0fa0b8dcbcc93a47894eee072714b62338484604051611d29939291906133a9565b60405180910390a16001905092915050565b60008054906101000a900473ffffffffffffffffffffffffffffffffffffffff1673ffffffffffffffffffffffffffffffffffffffff163373ffffffffffffffffffffffffffffffffffffffff1614611d9357600080fd5b60008060166101000a81548160ff021916908315150217905550565b60006009600083815260200190815260200160002060009054906101000a900460ff169050919050565b606060038054611de890613a43565b80601f0160208091040260200160405190810160405280929190818152602001828054611e1490613a43565b8015611e615780601f10611e3657610100808354040283529160200191611e61565b820191906000526020600020905b815481529060010190602001808311611e4457829003601f168201915b5050505050905090565b60008073ffffffffffffffffffffffffffffffffffffffff168273ffffffffffffffffffffffffffffffffffffffff161415611edc576040517f08c379a0000000000000000000000000000000000000000000000000000000008152600401611ed390613ae7565b60405180910390fd5b600860008373ffffffffffffffffffffffffffffffffffffffff1673ffffffffffffffffffffffffffffffffffffffff168152602001908152602001600020549050919050565b6000600a6000838152602001908152602001600020549050919050565b6060600073ffffffffffffffffffffffffffffffffffffffff16611f63836127cd565b73ffffffffffffffffffffffffffffffffffffffff161415611fba576040517f08c379a0000000000000000000000000000000000000000000000000000000008152600401611fb190612ff6565b60405180910390fd5b60006040518060200160405280600081525090506000815111611fec576040518060200160405280600081525061200f565b8083604051602001611fff929190613b64565b6040516020818303038152906040525b915050919050565b60008054906101000a900473ffffffffffffffffffffffffffffffffffffffff1673ffffffffffffffffffffffffffffffffffffffff163373ffffffffffffffffffffffffffffffffffffffff161461206f57600080fd5b60008060146101000a81548160ff021916908315150217905550565b60008073ffffffffffffffffffffffffffffffffffffffff166120ad836127cd565b73ffffffffffffffffffffffffffffffffffffffff161415612104576040517f08c379a00000000000000000000000000000000000000000000000000000000081526004016120fb90612ff6565b60405180910390fd5b3373ffffffffffffffffffffffffffffffffffffffff1661212483610a5d565b73ffffffffffffffffffffffffffffffffffffffff161461217a576040517f08c379a000000000000000000000000000000000000000000000000000000000815260040161217190613bfe565b60405180910390fd5b60001515600b600084815260200190815260200160002060009054906101000a900460ff161515146121e1576040517f08c379a00000000000000000000000000000000000000000000000000000000081526004016121d890613c90565b60405180910390fd5b6001600860003373ffffffffffffffffffffffffffffffffffffffff1673ffffffffffffffffffffffffffffffffffffffff1681526020019081526020016000205461222d91906135bc565b600860003373ffffffffffffffffffffffffffffffffffffffff1673ffffffffffffffffffffffffffffffffffffffff16815260200190815260200160002081905550600560009054906101000a900473ffffffffffffffffffffffffffffffffffffffff166007600084815260200190815260200160002060006101000a81548173ffffffffffffffffffffffffffffffffffffffff021916908373ffffffffffffffffffffffffffffffffffffffff16021790555060019050919050565b6000600654905090565b6000600b600083815260200190815260200160002060009054906101000a900460ff169050919050565b60606004805461233090613a43565b80601f016020809104026020016040519081016040528092919081815260200182805461235c90613a43565b80156123a95780601f1061237e576101008083540402835291602001916123a9565b820191906000526020600020905b81548152906001019060200180831161238c57829003601f168201915b5050505050905090565b60008054906101000a900473ffffffffffffffffffffffffffffffffffffffff1673ffffffffffffffffffffffffffffffffffffffff163373ffffffffffffffffffffffffffffffffffffffff161461240b57600080fd5b6001600060166101000a81548160ff021916908315150217905550565b6000806000806000604187511461243e57600093505b6020870151925060408701519150606087015160001a9050601b8160ff16101561247257601b8161246f9190613cb0565b90505b601b8160ff161415801561248a5750601c8160ff1614155b1561249c57600094505050505061263d565b600186828585604051600081526020016040526040516124bf9493929190613cf6565b6020604051602081039080840390855afa1580156124e1573d6000803e3d6000fd5b505050602060405103519350600073ffffffffffffffffffffffffffffffffffffffff168473ffffffffffffffffffffffffffffffffffffffff16141561255d576040517f08c379a000000000000000000000000000000000000000000000000000000000815260040161255490613dad565b60405180910390fd5b8873ffffffffffffffffffffffffffffffffffffffff168473ffffffffffffffffffffffffffffffffffffffff16146125cb576040517f08c379a00000000000000000000000000000000000000000000000000000000081526004016125c290613e19565b60405180910390fd5b6001600260008673ffffffffffffffffffffffffffffffffffffffff1673ffffffffffffffffffffffffffffffffffffffff16815260200190815260200160002060008a815260200190815260200160002060006101000a81548160ff02191690831515021790555060019450505050505b949350505050565b60008073ffffffffffffffffffffffffffffffffffffffff16612667836127cd565b73ffffffffffffffffffffffffffffffffffffffff1614156126be576040517f08c379a00000000000000000000000000000000000000000000000000000000081526004016126b590612ff6565b60405180910390fd5b3373ffffffffffffffffffffffffffffffffffffffff166126de83610a5d565b73ffffffffffffffffffffffffffffffffffffffff1614612734576040517f08c379a000000000000000000000000000000000000000000000000000000000815260040161272b90613eab565b60405180910390fd5b60006009600084815260200190815260200160002060006101000a81548160ff02191690831515021790555060019050919050565b60008054906101000a900473ffffffffffffffffffffffffffffffffffffffff1673ffffffffffffffffffffffffffffffffffffffff163373ffffffffffffffffffffffffffffffffffffffff16146127c157600080fd5b6127ca816128b2565b50565b60006007600083815260200190815260200160002060009054906101000a900473ffffffffffffffffffffffffffffffffffffffff169050919050565b60016000828152602001908152602001600020600081819054906101000a900460ff168092919061283a90613ecb565b91906101000a81548160ff021916908360ff1602179055505050565b600083838360405160200161286d93929190613ef5565b604051602081830303815290604052805190602001206040516020016128939190613f78565b6040516020818303038152906040528051906020012090509392505050565b600073ffffffffffffffffffffffffffffffffffffffff168173ffffffffffffffffffffffffffffffffffffffff1614156128ec57600080fd5b8073ffffffffffffffffffffffffffffffffffffffff1660008054906101000a900473ffffffffffffffffffffffffffffffffffffffff1673ffffffffffffffffffffffffffffffffffffffff167f8be0079c531659141344cd1fd0a4f28419497f9722a3daafe3b4186f6b6457e060405160405180910390a3806000806101000a81548173ffffffffffffffffffffffffffffffffffffffff021916908373ffffffffffffffffffffffffffffffffffffffff16021790555050565b6000604051905090565b600080fd5b600080fd5b6000819050919050565b6129d0816129bd565b81146129db57600080fd5b50565b6000813590506129ed816129c7565b92915050565b600060208284031215612a0957612a086129b3565b5b6000612a17848285016129de565b91505092915050565b612a29816129bd565b82525050565b6000602082019050612a446000830184612a20565b92915050565b600060ff82169050919050565b612a6081612a4a565b82525050565b6000602082019050612a7b6000830184612a57565b92915050565b600073ffffffffffffffffffffffffffffffffffffffff82169050919050565b6000612aac82612a81565b9050919050565b612abc81612aa1565b82525050565b6000602082019050612ad76000830184612ab3565b92915050565b60008115159050919050565b612af281612add565b82525050565b6000602082019050612b0d6000830184612ae9565b92915050565b60008060408385031215612b2a57612b296129b3565b5b6000612b38858286016129de565b9250506020612b49858286016129de565b9150509250929050565b612b5c81612aa1565b8114612b6757600080fd5b50565b600081359050612b7981612b53565b92915050565b60008060408385031215612b9657612b956129b3565b5b6000612ba4858286016129de565b9250506020612bb585828601612b6a565b9150509250929050565b600080600060608486031215612bd857612bd76129b3565b5b6000612be686828701612b6a565b9350506020612bf786828701612b6a565b9250506040612c08868287016129de565b9150509250925092565b600080fd5b600080fd5b6000601f19601f8301169050919050565b7f4e487b7100000000000000000000000000000000000000000000000000000000600052604160045260246000fd5b612c6582612c1c565b810181811067ffffffffffffffff82111715612c8457612c83612c2d565b5b80604052505050565b6000612c976129a9565b9050612ca38282612c5c565b919050565b600067ffffffffffffffff821115612cc357612cc2612c2d565b5b612ccc82612c1c565b9050602081019050919050565b82818337600083830152505050565b6000612cfb612cf684612ca8565b612c8d565b905082815260208101848484011115612d1757612d16612c17565b5b612d22848285612cd9565b509392505050565b600082601f830112612d3f57612d3e612c12565b5b8135612d4f848260208601612ce8565b91505092915050565b60008060408385031215612d6f57612d6e6129b3565b5b6000612d7d858286016129de565b925050602083013567ffffffffffffffff811115612d9e57612d9d6129b8565b5b612daa85828601612d2a565b9150509250929050565b60008060408385031215612dcb57612dca6129b3565b5b6000612dd985828601612b6a565b9250506020612dea858286016129de565b9150509250929050565b600081519050919050565b600082825260208201905092915050565b60005b83811015612e2e578082015181840152602081019050612e13565b83811115612e3d576000848401525b50505050565b6000612e4e82612df4565b612e588185612dff565b9350612e68818560208601612e10565b612e7181612c1c565b840191505092915050565b60006020820190508181036000830152612e968184612e43565b905092915050565b600060208284031215612eb457612eb36129b3565b5b6000612ec284828501612b6a565b91505092915050565b6000819050919050565b612ede81612ecb565b8114612ee957600080fd5b50565b600081359050612efb81612ed5565b92915050565b60008060008060808587031215612f1b57612f1a6129b3565b5b6000612f2987828801612b6a565b9450506020612f3a878288016129de565b935050604085013567ffffffffffffffff811115612f5b57612f5a6129b8565b5b612f6787828801612d2a565b9250506060612f7887828801612eec565b91505092959194509250565b7f4552433732314d657461646174613a2055524920717565727920666f72206e6f60008201527f6e6578697374656e7420746f6b656e0000000000000000000000000000000000602082015250565b6000612fe0602f83612dff565b9150612feb82612f84565b604082019050919050565b6000602082019050818103600083015261300f81612fd3565b9050919050565b7f546f6b656e54696d656c6f636b3a2063757272656e742074696d65206973206260008201527f65666f72652072656c656173652074696d650000000000000000000000000000602082015250565b6000613072603283612dff565b915061307d82613016565b604082019050919050565b600060208201905081810360008301526130a181613065565b9050919050565b7f4f6e6c79206f776e65722063616e207374616b65204e46540000000000000000600082015250565b60006130de601883612dff565b91506130e9826130a8565b602082019050919050565b6000602082019050818103600083015261310d816130d1565b9050919050565b7f546f6b656e207374616b656420616c7265616479000000000000000000000000600082015250565b600061314a601483612dff565b915061315582613114565b602082019050919050565b600060208201905081810360008301526131798161313d565b9050919050565b7f4e487b7100000000000000000000000000000000000000000000000000000000600052601160045260246000fd5b60006131ba826129bd565b91506131c5836129bd565b9250817fffffffffffffffffffffffffffffffffffffffffffffffffffffffffffffffff04831182151516156131fe576131fd613180565b5b828202905092915050565b6000613214826129bd565b915061321f836129bd565b9250827fffffffffffffffffffffffffffffffffffffffffffffffffffffffffffffffff0382111561325457613253613180565b5b828201905092915050565b7f4552433732313a206d696e7420746f20746865207a65726f206164647265737360008201527f206e6f7420616c6c6f7765640000000000000000000000000000000000000000602082015250565b60006132bb602c83612dff565b91506132c68261325f565b604082019050919050565b600060208201905081810360008301526132ea816132ae565b9050919050565b7f4d696e74696e67206973207061757365642c20706c6561736520636865636b2060008201527f6261636b206f6e636520636f6e7472616374206f776e657220616c6c6f77732060208201527f6d696e74696e6700000000000000000000000000000000000000000000000000604082015250565b6000613373604783612dff565b915061337e826132f1565b606082019050919050565b600060208201905081810360008301526133a281613366565b9050919050565b60006060820190506133be6000830186612ab3565b6133cb6020830185612ab3565b6133d86040830184612a20565b949350505050565b7f4552433732313a207472616e7366657220696e697469617465642066726f6d2060008201527f6e6f6e2d6f776e65720000000000000000000000000000000000000000000000602082015250565b600061343c602983612dff565b9150613447826133e0565b604082019050919050565b6000602082019050818103600083015261346b8161342f565b9050919050565b7f4552433732313a207472616e7366657220746f20746865207a65726f2061646460008201527f7265737300000000000000000000000000000000000000000000000000000000602082015250565b60006134ce602483612dff565b91506134d982613472565b604082019050919050565b600060208201905081810360008301526134fd816134c1565b9050919050565b7f5472616e73666572206f66204e4654206973207061757365642c20636865636b60008201527f206261636b206f6e636520636f6e7472616374206f776e657220616c6c6f777360208201527f206d696e74696e67000000000000000000000000000000000000000000000000604082015250565b6000613586604883612dff565b915061359182613504565b606082019050919050565b600060208201905081810360008301526135b581613579565b9050919050565b60006135c7826129bd565b91506135d2836129bd565b9250828210156135e5576135e4613180565b5b828203905092915050565b7f4f6e6c79206f776e6572206f662074686520746f6b656e2063616e207065726d60008201527f6974206f6e2074686520746f6b656e0000000000000000000000000000000000602082015250565b600061364c602f83612dff565b9150613657826135f0565b604082019050919050565b6000602082019050818103600083015261367b8161363f565b9050919050565b7f4275726e20616374696f6e206973206e6f7420616c6c6f776564206e6f772e2060008201527f506c6561736520636865636b206261636b206f6e636520636f6e74726163742060208201527f6f776e657220616c6c6f7773206d696e74696e67000000000000000000000000604082015250565b6000613704605483612dff565b915061370f82613682565b606082019050919050565b60006020820190508181036000830152613733816136f7565b9050919050565b7f4f6e6c79206f776e6572206f662074686520746f6b656e2063616e206275726e60008201527f2074686520746f6b656e73000000000000000000000000000000000000000000602082015250565b6000613796602b83612dff565b91506137a18261373a565b604082019050919050565b600060208201905081810360008301526137c581613789565b9050919050565b7f4f6e6c79206f776e65722063616e20736574204e465420666f7220617563746960008201527f6f6e000000000000000000000000000000000000000000000000000000000000602082015250565b6000613828602283612dff565b9150613833826137cc565b604082019050919050565b600060208201905081810360008301526138578161381b565b9050919050565b7f45524332304d657461646174613a20496e73756666696369656e742066756e6460008201527f7300000000000000000000000000000000000000000000000000000000000000602082015250565b60006138ba602183612dff565b91506138c58261385e565b604082019050919050565b600060208201905081810360008301526138e9816138ad565b9050919050565b7f546f6b656e206e6f7420617661696c61626c6520746f2062652070757263686160008201527f7365640000000000000000000000000000000000000000000000000000000000602082015250565b600061394c602383612dff565b9150613957826138f0565b604082019050919050565b6000602082019050818103600083015261397b8161393f565b9050919050565b7f546f6b656e207374616b65642c206e6f7420617661696c61626c6520746f206260008201527f6520707572636861736564000000000000000000000000000000000000000000602082015250565b60006139de602b83612dff565b91506139e982613982565b604082019050919050565b60006020820190508181036000830152613a0d816139d1565b9050919050565b7f4e487b7100000000000000000000000000000000000000000000000000000000600052602260045260246000fd5b60006002820490506001821680613a5b57607f821691505b60208210811415613a6f57613a6e613a14565b5b50919050565b7f4552433732313a2062616c616e636520717565727920666f7220746865207a6560008201527f726f206164647265737300000000000000000000000000000000000000000000602082015250565b6000613ad1602a83612dff565b9150613adc82613a75565b604082019050919050565b60006020820190508181036000830152613b0081613ac4565b9050919050565b600081905092915050565b6000613b1d82612df4565b613b278185613b07565b9350613b37818560208601612e10565b80840191505092915050565b6000819050919050565b613b5e613b59826129bd565b613b43565b82525050565b6000613b708285613b12565b9150613b7c8284613b4d565b6020820191508190509392505050565b7f4f6e6c7920746f6b656e206f776e65722063616e2073656c6c20746865204e4660008201527f5400000000000000000000000000000000000000000000000000000000000000602082015250565b6000613be8602183612dff565b9150613bf382613b8c565b604082019050919050565b60006020820190508181036000830152613c1781613bdb565b9050919050565b7f546f6b656e207374616b65642c206e6f7420617661696c61626c6520746f206260008201527f6520736f6c640000000000000000000000000000000000000000000000000000602082015250565b6000613c7a602683612dff565b9150613c8582613c1e565b604082019050919050565b60006020820190508181036000830152613ca981613c6d565b9050919050565b6000613cbb82612a4a565b9150613cc683612a4a565b92508260ff03821115613cdc57613cdb613180565b5b828201905092915050565b613cf081612ecb565b82525050565b6000608082019050613d0b6000830187613ce7565b613d186020830186612a57565b613d256040830185613ce7565b613d326060830184613ce7565b95945050505050565b7f4552433732313a205065726d69742061646472657373206973207a65726f206160008201527f6464726573732c2061626f727465642e00000000000000000000000000000000602082015250565b6000613d97603083612dff565b9150613da282613d3b565b604082019050919050565b60006020820190508181036000830152613dc681613d8a565b9050919050565b7f496e76616c6964207065726d6974207369676e61747572650000000000000000600082015250565b6000613e03601883612dff565b9150613e0e82613dcd565b602082019050919050565b60006020820190508181036000830152613e3281613df6565b9050919050565b7f4f6e6c79206f776e6572206f6620746f6b656e2063616e20656e64204e46542060008201527f61756374696f6e00000000000000000000000000000000000000000000000000602082015250565b6000613e95602783612dff565b9150613ea082613e39565b604082019050919050565b60006020820190508181036000830152613ec481613e88565b9050919050565b6000613ed682612a4a565b915060ff821415613eea57613ee9613180565b5b600182019050919050565b6000606082019050613f0a6000830186612ab3565b613f176020830185612a20565b613f246040830184612a57565b949350505050565b7f19457468657265756d205369676e6564204d6573736167653a0a333200000000600082015250565b6000613f62601c83612dff565b9150613f6d82613f2c565b602082019050919050565b60006040820190508181036000830152613f9181613f55565b9050613fa06020830184613ce7565b9291505056fea26469706673582212206af3d7338e88a3acf4d8c57962b19f68fb9f31134ff4343de7fe08cc557cf2f964736f6c63430008090033",
  "linkReferences": {},
  "deployedLinkReferences": {}
}